{
  "contractName": "MinesweeperMinting",
  "abi": [
    {
      "constant": true,
      "inputs": [],
      "name": "totalSupply",
      "outputs": [
        {
          "name": "",
          "type": "uint256"
        }
      ],
      "payable": false,
      "stateMutability": "view",
      "type": "function"
    },
    {
      "constant": true,
      "inputs": [],
      "name": "MIN_SIZE",
      "outputs": [
        {
          "name": "",
          "type": "int16"
        }
      ],
      "payable": false,
      "stateMutability": "view",
      "type": "function"
    },
    {
      "constant": true,
      "inputs": [
        {
          "name": "_tokenId",
          "type": "uint256"
        }
      ],
      "name": "ownerOf",
      "outputs": [
        {
          "name": "owner",
          "type": "address"
        }
      ],
      "payable": false,
      "stateMutability": "view",
      "type": "function"
    },
    {
      "constant": true,
      "inputs": [
        {
          "name": "",
          "type": "uint256"
        }
      ],
      "name": "tokenIdToOwner",
      "outputs": [
        {
          "name": "",
          "type": "address"
        }
      ],
      "payable": false,
      "stateMutability": "view",
      "type": "function"
    },
    {
      "constant": true,
      "inputs": [],
      "name": "MAX_SIZE",
      "outputs": [
        {
          "name": "",
          "type": "int16"
        }
      ],
      "payable": false,
      "stateMutability": "view",
      "type": "function"
    },
    {
      "constant": true,
      "inputs": [],
      "name": "NAME",
      "outputs": [
        {
          "name": "",
          "type": "string"
        }
      ],
      "payable": false,
      "stateMutability": "view",
      "type": "function"
    },
    {
      "constant": true,
      "inputs": [],
      "name": "SYMBOL",
      "outputs": [
        {
          "name": "",
          "type": "string"
        }
      ],
      "payable": false,
      "stateMutability": "view",
      "type": "function"
    },
    {
      "anonymous": false,
      "inputs": [
        {
          "indexed": false,
          "name": "x",
          "type": "int16"
        },
        {
          "indexed": false,
          "name": "y",
          "type": "int16"
        },
        {
          "indexed": false,
          "name": "tokenId",
          "type": "uint256"
        }
      ],
      "name": "TileFlagged",
      "type": "event"
    },
    {
      "anonymous": false,
      "inputs": [
        {
          "indexed": false,
          "name": "x",
          "type": "int16"
        },
        {
          "indexed": false,
          "name": "y",
          "type": "int16"
        },
        {
          "indexed": false,
          "name": "tokenId",
          "type": "uint256"
        }
      ],
      "name": "TileUnflagged",
      "type": "event"
    },
    {
      "anonymous": false,
      "inputs": [
        {
          "indexed": false,
          "name": "x",
          "type": "int16"
        },
        {
          "indexed": false,
          "name": "y",
          "type": "int16"
        },
        {
          "indexed": false,
          "name": "bombs",
          "type": "uint8"
        },
        {
          "indexed": false,
          "name": "tokenId",
          "type": "uint256"
        }
      ],
      "name": "TileOpened",
      "type": "event"
    },
    {
      "anonymous": false,
      "inputs": [
        {
          "indexed": false,
          "name": "_size",
          "type": "int16"
        },
        {
          "indexed": false,
          "name": "_bombCount",
          "type": "int16"
        },
        {
          "indexed": false,
          "name": "owner",
          "type": "address"
        },
        {
          "indexed": false,
          "name": "tokenId",
          "type": "uint256"
        }
      ],
      "name": "PlayfieldCreated",
      "type": "event"
    },
    {
      "anonymous": false,
      "inputs": [
        {
          "indexed": false,
          "name": "tokenId",
          "type": "uint256"
        }
      ],
      "name": "GameLost",
      "type": "event"
    },
    {
      "anonymous": false,
      "inputs": [
        {
          "indexed": false,
          "name": "tokenId",
          "type": "int16"
        }
      ],
      "name": "GameWon",
      "type": "event"
    },
    {
      "anonymous": false,
      "inputs": [
        {
          "indexed": false,
          "name": "x",
          "type": "int16"
        },
        {
          "indexed": false,
          "name": "y",
          "type": "int16"
        },
        {
          "indexed": false,
          "name": "bomb",
          "type": "bool"
        }
      ],
      "name": "TestEvent",
      "type": "event"
    },
    {
      "anonymous": false,
      "inputs": [
        {
          "indexed": false,
          "name": "random",
          "type": "int16"
        }
      ],
      "name": "BombPlaced",
      "type": "event"
    },
    {
      "constant": false,
      "inputs": [
        {
          "name": "_size",
          "type": "int16"
        },
        {
          "name": "_bombCount",
          "type": "int16"
        }
      ],
      "name": "createMinesweeperGame",
      "outputs": [
        {
          "name": "",
          "type": "uint256"
        }
      ],
      "payable": false,
      "stateMutability": "nonpayable",
      "type": "function"
    }
  ],
  "bytecode": "0x6060604052341561000f57600080fd5b610a878061001e6000396000f30060606040526004361061008e576000357c0100000000000000000000000000000000000000000000000000000000900463ffffffff16806318160ddd1461009357806345dcd02c146100bc5780636352211e146100eb5780636e9e48ef1461014e5780638d67799e146101b1578063a0c2d8ff146101e0578063a3f4df7e14610226578063f76f8d78146102b4575b600080fd5b341561009e57600080fd5b6100a6610342565b6040518082815260200191505060405180910390f35b34156100c757600080fd5b6100cf61034f565b604051808260010b60010b815260200191505060405180910390f35b34156100f657600080fd5b61010c6004808035906020019091905050610354565b604051808273ffffffffffffffffffffffffffffffffffffffff1673ffffffffffffffffffffffffffffffffffffffff16815260200191505060405180910390f35b341561015957600080fd5b61016f60048080359060200190919050506103cc565b604051808273ffffffffffffffffffffffffffffffffffffffff1673ffffffffffffffffffffffffffffffffffffffff16815260200191505060405180910390f35b34156101bc57600080fd5b6101c46103ff565b604051808260010b60010b815260200191505060405180910390f35b34156101eb57600080fd5b610210600480803560010b90602001909190803560010b906020019091905050610404565b6040518082815260200191505060405180910390f35b341561023157600080fd5b6102396104eb565b6040518080602001828103825283818151815260200191508051906020019080838360005b8381101561027957808201518184015260208101905061025e565b50505050905090810190601f1680156102a65780820380516001836020036101000a031916815260200191505b509250505060405180910390f35b34156102bf57600080fd5b6102c7610524565b6040518080602001828103825283818151815260200191508051906020019080838360005b838110156103075780820151818401526020810190506102ec565b50505050905090810190601f1680156103345780820380516001836020036101000a031916815260200191505b509250505060405180910390f35b6000600280549050905090565b600481565b600080600083815260200190815260200160002060009054906101000a900473ffffffffffffffffffffffffffffffffffffffff169050600073ffffffffffffffffffffffffffffffffffffffff168173ffffffffffffffffffffffffffffffffffffffff16141515156103c757600080fd5b919050565b60006020528060005260406000206000915054906101000a900473ffffffffffffffffffffffffffffffffffffffff1681565b606481565b600080606460010b8460010b131580156104255750600460010b8460010b12155b151561043057600080fd5b8360010b8360010b1315151561044557600080fd5b61044f848461055d565b905061045a816106ee565b7fc0adc933efaca3de8af240252fbf25c9f051776e85aec05f201f92a6d2f0537584843384604051808560010b60010b81526020018460010b60010b81526020018373ffffffffffffffffffffffffffffffffffffffff1673ffffffffffffffffffffffffffffffffffffffff16815260200182815260200194505050505060405180910390a18091505092915050565b6040805190810160405280601481526020017f4d696e657377656570657220457468657265756d00000000000000000000000081525081565b6040805190810160405280600381526020017f4d5345000000000000000000000000000000000000000000000000000000000081525081565b6000610567610971565b600060a0604051908101604052808660010b81526020018560010b815260200161059187876108a4565b600019168152602001600060010b81526020016000151581525091506001600280548060010182816105c391906109af565b9160005260206000209060060201600085909190915060008201518160000160006101000a81548161ffff021916908360010b61ffff16021790555060208201518160000160026101000a81548161ffff021916908360010b61ffff1602179055506040820151816001019060001916905560608201518160020160006101000a81548161ffff021916908360010b61ffff16021790555060808201518160020160026101000a81548160ff02191690831515021790555050500390503360008083815260200190815260200160002060006101000a81548173ffffffffffffffffffffffffffffffffffffffff021916908373ffffffffffffffffffffffffffffffffffffffff160217905550600160008154809291906001019190505550809250505092915050565b60008060008060008060028781548110151561070657fe5b906000526020600020906006020160000160009054906101000a900460010b955060028781548110151561073657fe5b906000526020600020906006020160000160029054906101000a900460010b945060028781548110151561076657fe5b906000526020600020906006020160010154935060009250600091505b8460010b8260010b121561089b576107a360006001888902038686610924565b905082806001019350506002878154811015156107bc57fe5b906000526020600020906006020160040160008260010b60010b815260200190815260200160002060009054906101000a900460ff1615610801578180600190039250505b600160028881548110151561081257fe5b906000526020600020906006020160040160008360010b60010b815260200190815260200160002060006101000a81548160ff0219169083151502179055507fa2abfe387b9ed4f01092b2ae251d0ae33ee797fb71a01d5f0ba2a3787fafdda981604051808260010b60010b815260200191505060405180910390a18180600101925050610783565b50505050505050565b60008282600154604051808460010b60010b7e010000000000000000000000000000000000000000000000000000000000000281526002018360010b60010b7e0100000000000000000000000000000000000000000000000000000000000002815260020182815260200193505050506040518091039020905092915050565b60008484860161ffff1684846040518083600019166000191681526020018281526020019250505060405180910390206001900461ffff1681151561096557fe5b06039050949350505050565b60a060405190810160405280600060010b8152602001600060010b815260200160008019168152602001600060010b81526020016000151581525090565b8154818355818115116109dc576006028160060283600052602060002091820191016109db91906109e1565b5b505050565b610a5891905b80821115610a5457600080820160006101000a81549061ffff02191690556000820160026101000a81549061ffff021916905560018201600090556002820160006101000a81549061ffff02191690556002820160026101000a81549060ff0219169055506006016109e7565b5090565b905600a165627a7a723058208c39fbf4ae9781ab2617a4b6a8e6e8e0f5a20ea737d35b78c4ead20733cae5fe0029",
  "source": "pragma solidity ^0.4.17;\r\n\r\nimport \"./MinesweeperOwnership.sol\";\r\n\r\ncontract MinesweeperMinting is MinesweeperOwnership{\r\n    int16 public constant MAX_SIZE = 100;\r\n    int16 public constant MIN_SIZE = 4;\r\n\r\n    function createMinesweeperGame(int16 _size, int16 _bombCount) public returns (uint256) {\r\n        require(_size <= MAX_SIZE && _size >= MIN_SIZE);\r\n        require(_bombCount <= _size);\r\n\r\n        uint256 _tokenId = _createPlayfield(_size, _bombCount);\r\n\r\n        placeBombs(_tokenId);\r\n\r\n        PlayfieldCreated(_size, _bombCount, msg.sender, _tokenId);\r\n        \r\n        return _tokenId;\r\n    }\r\n\r\n    function placeBombs(uint256 _tokenId) internal {\r\n        int16 size = playfields[_tokenId].size;\r\n        int16 bombCount = playfields[_tokenId].bombCount;\r\n        bytes32 gameHash = playfields[_tokenId].gameHash;\r\n\r\n        uint256 nonce = 0;\r\n\r\n        for (int16 i = 0; i < bombCount; i++) {\r\n            int16 random = int16(pseudoRandom(0, uint16(size*size) - 1, gameHash, nonce));\r\n            nonce++;\r\n            if (playfields[_tokenId].fieldToBomb[random]) {\r\n                i--;\r\n            }\r\n            playfields[_tokenId].fieldToBomb[random] = true;\r\n            BombPlaced(random);\r\n        } \r\n    }\r\n\r\n    function pseudoRandom(uint16 _min, uint16 _max, bytes32 _gameHash, uint256 nonce) internal pure returns (uint16) {\r\n        return uint16(keccak256(_gameHash, nonce))%(_min+_max)-_min;\r\n    }\r\n}",
  "sourcePath": "C:\\Users\\Fabian\\Desktop\\Minesweeper\\contracts\\MinesweeperMinting.sol",
  "compiler": {
    "name": "solc",
    "version": "0.4.19+commit.c4cbbb05.Emscripten.clang"
  },
  "schemaVersion": "1.0.1",
  "updatedAt": "2018-04-24T14:16:45.994Z"
}