{
  "contractName": "MinesweeperCore",
  "abi": [
    {
      "constant": true,
      "inputs": [],
      "name": "totalSupply",
      "outputs": [
        {
          "name": "",
          "type": "uint256"
        }
      ],
      "payable": false,
      "stateMutability": "view",
      "type": "function"
    },
    {
      "constant": true,
      "inputs": [],
      "name": "MIN_SIZE",
      "outputs": [
        {
          "name": "",
          "type": "int16"
        }
      ],
      "payable": false,
      "stateMutability": "view",
      "type": "function"
    },
    {
      "constant": true,
      "inputs": [
        {
          "name": "_tokenId",
          "type": "uint256"
        }
      ],
      "name": "ownerOf",
      "outputs": [
        {
          "name": "owner",
          "type": "address"
        }
      ],
      "payable": false,
      "stateMutability": "view",
      "type": "function"
    },
    {
      "constant": true,
      "inputs": [
        {
          "name": "",
          "type": "uint256"
        }
      ],
      "name": "tokenIdToOwner",
      "outputs": [
        {
          "name": "",
          "type": "address"
        }
      ],
      "payable": false,
      "stateMutability": "view",
      "type": "function"
    },
    {
      "constant": true,
      "inputs": [],
      "name": "MAX_SIZE",
      "outputs": [
        {
          "name": "",
          "type": "int16"
        }
      ],
      "payable": false,
      "stateMutability": "view",
      "type": "function"
    },
    {
      "constant": false,
      "inputs": [
        {
          "name": "_size",
          "type": "int16"
        },
        {
          "name": "_bombCount",
          "type": "int16"
        }
      ],
      "name": "createMinesweeperGame",
      "outputs": [
        {
          "name": "",
          "type": "uint256"
        }
      ],
      "payable": false,
      "stateMutability": "nonpayable",
      "type": "function"
    },
    {
      "constant": true,
      "inputs": [],
      "name": "NAME",
      "outputs": [
        {
          "name": "",
          "type": "string"
        }
      ],
      "payable": false,
      "stateMutability": "view",
      "type": "function"
    },
    {
      "constant": true,
      "inputs": [],
      "name": "SYMBOL",
      "outputs": [
        {
          "name": "",
          "type": "string"
        }
      ],
      "payable": false,
      "stateMutability": "view",
      "type": "function"
    },
    {
      "anonymous": false,
      "inputs": [
        {
          "indexed": false,
          "name": "x",
          "type": "int16"
        },
        {
          "indexed": false,
          "name": "y",
          "type": "int16"
        },
        {
          "indexed": false,
          "name": "tokenId",
          "type": "uint256"
        }
      ],
      "name": "TileFlagged",
      "type": "event"
    },
    {
      "anonymous": false,
      "inputs": [
        {
          "indexed": false,
          "name": "x",
          "type": "int16"
        },
        {
          "indexed": false,
          "name": "y",
          "type": "int16"
        },
        {
          "indexed": false,
          "name": "tokenId",
          "type": "uint256"
        }
      ],
      "name": "TileUnflagged",
      "type": "event"
    },
    {
      "anonymous": false,
      "inputs": [
        {
          "indexed": false,
          "name": "x",
          "type": "int16"
        },
        {
          "indexed": false,
          "name": "y",
          "type": "int16"
        },
        {
          "indexed": false,
          "name": "bombs",
          "type": "uint8"
        },
        {
          "indexed": false,
          "name": "tokenId",
          "type": "uint256"
        }
      ],
      "name": "TileOpened",
      "type": "event"
    },
    {
      "anonymous": false,
      "inputs": [
        {
          "indexed": false,
          "name": "_size",
          "type": "int16"
        },
        {
          "indexed": false,
          "name": "_bombCount",
          "type": "int16"
        },
        {
          "indexed": false,
          "name": "owner",
          "type": "address"
        },
        {
          "indexed": false,
          "name": "tokenId",
          "type": "uint256"
        }
      ],
      "name": "PlayfieldCreated",
      "type": "event"
    },
    {
      "anonymous": false,
      "inputs": [
        {
          "indexed": false,
          "name": "tokenId",
          "type": "uint256"
        }
      ],
      "name": "GameLost",
      "type": "event"
    },
    {
      "anonymous": false,
      "inputs": [
        {
          "indexed": false,
          "name": "tokenId",
          "type": "int16"
        }
      ],
      "name": "GameWon",
      "type": "event"
    },
    {
      "anonymous": false,
      "inputs": [
        {
          "indexed": false,
          "name": "x",
          "type": "int16"
        },
        {
          "indexed": false,
          "name": "y",
          "type": "int16"
        },
        {
          "indexed": false,
          "name": "bomb",
          "type": "bool"
        }
      ],
      "name": "TestEvent",
      "type": "event"
    },
    {
      "anonymous": false,
      "inputs": [
        {
          "indexed": false,
          "name": "random",
          "type": "int16"
        }
      ],
      "name": "BombPlaced",
      "type": "event"
    },
    {
      "constant": false,
      "inputs": [
        {
          "name": "_x",
          "type": "int16"
        },
        {
          "name": "_y",
          "type": "int16"
        },
        {
          "name": "_tokenId",
          "type": "uint256"
        }
      ],
      "name": "openTile",
      "outputs": [],
      "payable": false,
      "stateMutability": "nonpayable",
      "type": "function"
    },
    {
      "constant": false,
      "inputs": [
        {
          "name": "_x",
          "type": "int16"
        },
        {
          "name": "_y",
          "type": "int16"
        },
        {
          "name": "_tokenId",
          "type": "uint256"
        }
      ],
      "name": "flagTile",
      "outputs": [],
      "payable": false,
      "stateMutability": "nonpayable",
      "type": "function"
    },
    {
      "constant": false,
      "inputs": [
        {
          "name": "_x",
          "type": "int16"
        },
        {
          "name": "_y",
          "type": "int16"
        },
        {
          "name": "_tokenId",
          "type": "uint256"
        }
      ],
      "name": "unflagTile",
      "outputs": [],
      "payable": false,
      "stateMutability": "nonpayable",
      "type": "function"
    },
    {
      "constant": true,
      "inputs": [
        {
          "name": "_x",
          "type": "int16"
        },
        {
          "name": "_y",
          "type": "int16"
        },
        {
          "name": "_tokenId",
          "type": "uint256"
        }
      ],
      "name": "isBomb",
      "outputs": [
        {
          "name": "",
          "type": "bool"
        }
      ],
      "payable": false,
      "stateMutability": "view",
      "type": "function"
    },
    {
      "constant": true,
      "inputs": [
        {
          "name": "_tokenId",
          "type": "uint256"
        }
      ],
      "name": "getGame",
      "outputs": [
        {
          "name": "_size",
          "type": "int16"
        },
        {
          "name": "_bombCount",
          "type": "int16"
        },
        {
          "name": "_gameHash",
          "type": "bytes32"
        },
        {
          "name": "_tilesOpened",
          "type": "int16"
        },
        {
          "name": "_locked",
          "type": "bool"
        }
      ],
      "payable": false,
      "stateMutability": "view",
      "type": "function"
    },
    {
      "constant": true,
      "inputs": [
        {
          "name": "_x",
          "type": "int16"
        },
        {
          "name": "_y",
          "type": "int16"
        },
        {
          "name": "_tokenId",
          "type": "uint256"
        }
      ],
      "name": "getTile",
      "outputs": [
        {
          "name": "",
          "type": "uint8"
        }
      ],
      "payable": false,
      "stateMutability": "view",
      "type": "function"
    }
  ],
  "bytecode": "0x6060604052341561000f57600080fd5b6117078061001e6000396000f3006060604052600436106100d0576000357c0100000000000000000000000000000000000000000000000000000000900463ffffffff16806318160ddd146100d557806345dcd02c146100fe5780634a9a2abb1461012d5780634b1009fa146101685780636352211e146101c55780636e9e48ef146102285780638d67799e1461028b578063a0c2d8ff146102ba578063a2f77bcc14610300578063a3f4df7e14610371578063bf7a3a9b146103ff578063ce68373014610452578063ebd64aca1461048d578063f76f8d78146104c8575b600080fd5b34156100e057600080fd5b6100e8610556565b6040518082815260200191505060405180910390f35b341561010957600080fd5b610111610563565b604051808260010b60010b815260200191505060405180910390f35b341561013857600080fd5b610166600480803560010b90602001909190803560010b906020019091908035906020019091905050610568565b005b341561017357600080fd5b6101a1600480803560010b90602001909190803560010b9060200190919080359060200190919050506106e7565b604051808260038111156101b157fe5b60ff16815260200191505060405180910390f35b34156101d057600080fd5b6101e6600480803590602001909190505061076d565b604051808273ffffffffffffffffffffffffffffffffffffffff1673ffffffffffffffffffffffffffffffffffffffff16815260200191505060405180910390f35b341561023357600080fd5b61024960048080359060200190919050506107e5565b604051808273ffffffffffffffffffffffffffffffffffffffff1673ffffffffffffffffffffffffffffffffffffffff16815260200191505060405180910390f35b341561029657600080fd5b61029e610818565b604051808260010b60010b815260200191505060405180910390f35b34156102c557600080fd5b6102ea600480803560010b90602001909190803560010b90602001909190505061081d565b6040518082815260200191505060405180910390f35b341561030b57600080fd5b6103216004808035906020019091905050610904565b604051808660010b60010b81526020018560010b60010b815260200184600019166000191681526020018360010b60010b8152602001821515151581526020019550505050505060405180910390f35b341561037c57600080fd5b6103846109f8565b6040518080602001828103825283818151815260200191508051906020019080838360005b838110156103c45780820151818401526020810190506103a9565b50505050905090810190601f1680156103f15780820380516001836020036101000a031916815260200191505b509250505060405180910390f35b341561040a57600080fd5b610438600480803560010b90602001909190803560010b906020019091908035906020019091905050610a31565b604051808215151515815260200191505060405180910390f35b341561045d57600080fd5b61048b600480803560010b90602001909190803560010b906020019091908035906020019091905050610ab7565b005b341561049857600080fd5b6104c6600480803560010b90602001909190803560010b906020019091908035906020019091905050610f47565b005b34156104d357600080fd5b6104db6110c6565b6040518080602001828103825283818151815260200191508051906020019080838360005b8381101561051b578082015181840152602081019050610500565b50505050905090810190601f1680156105485780820380516001836020036101000a031916815260200191505b509250505060405180910390f35b6000600280549050905090565b600481565b600061057433836110ff565b151561057f57600080fd5b6105888261116a565b15151561059457600080fd5b6002828154811015156105a357fe5b906000526020600020906006020160000160009054906101000a900460010b9050600060038111156105d157fe5b6002838154811015156105e057fe5b90600052602060002090600602016003016000868487020160010b60010b815260200190815260200160002060009054906101000a900460ff16600381111561062557fe5b14151561063157600080fd5b600160028381548110151561064257fe5b90600052602060002090600602016003016000868487020160010b60010b815260200190815260200160002060006101000a81548160ff0219169083600381111561068957fe5b02179055507f5b7813be6fcdfe522a39d0884fa2d1e3aba645474b9544a5d348a12fa1f4bfc4848484604051808460010b60010b81526020018360010b60010b8152602001828152602001935050505060405180910390a150505050565b6000806002838154811015156106f957fe5b906000526020600020906006020160000160009054906101000a900460010b905060028381548110151561072957fe5b90600052602060002090600602016003016000868387020160010b60010b815260200190815260200160002060009054906101000a900460ff169150509392505050565b600080600083815260200190815260200160002060009054906101000a900473ffffffffffffffffffffffffffffffffffffffff169050600073ffffffffffffffffffffffffffffffffffffffff168173ffffffffffffffffffffffffffffffffffffffff16141515156107e057600080fd5b919050565b60006020528060005260406000206000915054906101000a900473ffffffffffffffffffffffffffffffffffffffff1681565b606481565b600080606460010b8460010b1315801561083e5750600460010b8460010b12155b151561084957600080fd5b8360010b8360010b1315151561085e57600080fd5b61086884846111a1565b905061087381611332565b7fc0adc933efaca3de8af240252fbf25c9f051776e85aec05f201f92a6d2f0537584843384604051808560010b60010b81526020018460010b60010b81526020018373ffffffffffffffffffffffffffffffffffffffff1673ffffffffffffffffffffffffffffffffffffffff16815260200182815260200194505050505060405180910390a18091505092915050565b600080600080600060028681548110151561091b57fe5b906000526020600020906006020160000160009054906101000a900460010b945060028681548110151561094b57fe5b906000526020600020906006020160000160029054906101000a900460010b935060028681548110151561097b57fe5b906000526020600020906006020160010154925060028681548110151561099e57fe5b906000526020600020906006020160020160009054906101000a900460010b91506002868154811015156109ce57fe5b906000526020600020906006020160020160029054906101000a900460ff16905091939590929450565b6040805190810160405280601481526020017f4d696e657377656570657220457468657265756d00000000000000000000000081525081565b600080600283815481101515610a4357fe5b906000526020600020906006020160000160009054906101000a900460010b9050600283815481101515610a7357fe5b90600052602060002090600602016004016000868387020160010b60010b815260200190815260200160002060009054906101000a900460ff169150509392505050565b600080600080610ac733866110ff565b1515610ad257600080fd5b610adb8561116a565b151515610ae757600080fd5b600285815481101515610af657fe5b906000526020600020906006020160000160009054906101000a900460010b935060006003811115610b2457fe5b600286815481101515610b3357fe5b9060005260206000209060060201600301600089878a020160010b60010b815260200190815260200160002060009054906101000a900460ff166003811115610b7857fe5b141515610b8457600080fd5b60028086815481101515610b9457fe5b9060005260206000209060060201600301600089878a020160010b60010b815260200190815260200160002060006101000a81548160ff02191690836003811115610bdb57fe5b0217905550600285815481101515610bef57fe5b9060005260206000209060060201600201600081819054906101000a900460010b8092919060010191906101000a81548161ffff021916908360010b61ffff16021790555050600092507fffffffffffffffffffffffffffffffffffffffffffffffffffffffffffffffff91505b60028260010b1215610cf2577fffffffffffffffffffffffffffffffffffffffffffffffffffffffffffffffff90505b60028160010b1215610ce557600082870160010b12158015610cb55750600081880160010b12155b15610cd857610cc981880183880187610a31565b15610cd75782806001019350505b5b8080600101915050610c8d565b8180600101925050610c5d565b82600286815481101515610d0257fe5b9060005260206000209060060201600501600089878a020160010b60010b815260200190815260200160002060006101000a81548160ff021916908360ff1602179055507f2f19adc25f495f37d24e4bfcf75c92e298906d56d416106ca9ce7f31394ea3a787878588604051808560010b60010b81526020018460010b60010b81526020018360ff1660ff16815260200182815260200194505050505060405180910390a1610db2878787610a31565b15610e59576003600286815481101515610dc857fe5b9060005260206000209060060201600301600089878a020160010b60010b815260200190815260200160002060006101000a81548160ff02191690836003811115610e0f57fe5b02179055507f944b38ea929fa05f5813527d5626015c8e0819220ae1a8fa2b76ebd7f7f9cd1a856040518082815260200191505060405180910390a1610e54856114e8565b610f3e565b600285815481101515610e6857fe5b906000526020600020906006020160000160029054906101000a900460010b8485020360010b600286815481101515610e9d57fe5b906000526020600020906006020160020160009054906101000a900460010b60010b1415610f3d577fd4633805fa62eb44ce3bd65fce9ca707101079b5a830491721f2529d8ca14eac600286815481101515610ef557fe5b906000526020600020906006020160000160029054906101000a900460010b85860203604051808260010b60010b815260200191505060405180910390a1610f3c856114e8565b5b5b50505050505050565b6000610f5333836110ff565b1515610f5e57600080fd5b610f678261116a565b151515610f7357600080fd5b600282815481101515610f8257fe5b906000526020600020906006020160000160009054906101000a900460010b905060016003811115610fb057fe5b600283815481101515610fbf57fe5b90600052602060002090600602016003016000868487020160010b60010b815260200190815260200160002060009054906101000a900460ff16600381111561100457fe5b14151561101057600080fd5b600060028381548110151561102157fe5b90600052602060002090600602016003016000868487020160010b60010b815260200190815260200160002060006101000a81548160ff0219169083600381111561106857fe5b02179055507fd39979d46d37dfd62245e645485abb05e4c48264b4fa7164489ddf7bdfd135ee848484604051808460010b60010b81526020018360010b60010b8152602001828152602001935050505060405180910390a150505050565b6040805190810160405280600381526020017f4d5345000000000000000000000000000000000000000000000000000000000081525081565b60008273ffffffffffffffffffffffffffffffffffffffff1660008084815260200190815260200160002060009054906101000a900473ffffffffffffffffffffffffffffffffffffffff1673ffffffffffffffffffffffffffffffffffffffff1614905092915050565b600060028281548110151561117b57fe5b906000526020600020906006020160020160029054906101000a900460ff169050919050565b60006111ab6115f1565b600060a0604051908101604052808660010b81526020018560010b81526020016111d58787611524565b600019168152602001600060010b8152602001600015158152509150600160028054806001018281611207919061162f565b9160005260206000209060060201600085909190915060008201518160000160006101000a81548161ffff021916908360010b61ffff16021790555060208201518160000160026101000a81548161ffff021916908360010b61ffff1602179055506040820151816001019060001916905560608201518160020160006101000a81548161ffff021916908360010b61ffff16021790555060808201518160020160026101000a81548160ff02191690831515021790555050500390503360008083815260200190815260200160002060006101000a81548173ffffffffffffffffffffffffffffffffffffffff021916908373ffffffffffffffffffffffffffffffffffffffff160217905550600160008154809291906001019190505550809250505092915050565b60008060008060008060028781548110151561134a57fe5b906000526020600020906006020160000160009054906101000a900460010b955060028781548110151561137a57fe5b906000526020600020906006020160000160029054906101000a900460010b94506002878154811015156113aa57fe5b906000526020600020906006020160010154935060009250600091505b8460010b8260010b12156114df576113e7600060018889020386866115a4565b9050828060010193505060028781548110151561140057fe5b906000526020600020906006020160040160008260010b60010b815260200190815260200160002060009054906101000a900460ff1615611445578180600190039250505b600160028881548110151561145657fe5b906000526020600020906006020160040160008360010b60010b815260200190815260200160002060006101000a81548160ff0219169083151502179055507fa2abfe387b9ed4f01092b2ae251d0ae33ee797fb71a01d5f0ba2a3787fafdda981604051808260010b60010b815260200191505060405180910390a181806001019250506113c7565b50505050505050565b60016002828154811015156114f957fe5b906000526020600020906006020160020160026101000a81548160ff02191690831515021790555050565b60008282600154604051808460010b60010b7e010000000000000000000000000000000000000000000000000000000000000281526002018360010b60010b7e0100000000000000000000000000000000000000000000000000000000000002815260020182815260200193505050506040518091039020905092915050565b60008484860161ffff1684846040518083600019166000191681526020018281526020019250505060405180910390206001900461ffff168115156115e557fe5b06039050949350505050565b60a060405190810160405280600060010b8152602001600060010b815260200160008019168152602001600060010b81526020016000151581525090565b81548183558181151161165c5760060281600602836000526020600020918201910161165b9190611661565b5b505050565b6116d891905b808211156116d457600080820160006101000a81549061ffff02191690556000820160026101000a81549061ffff021916905560018201600090556002820160006101000a81549061ffff02191690556002820160026101000a81549060ff021916905550600601611667565b5090565b905600a165627a7a72305820a850803a943aa02e99ced5a8004b6bc922df0ea1ab7931d372d29682570c1b350029",
  "source": "pragma solidity ^0.4.17;\r\n\r\nimport \"./MinesweeperMinting.sol\";\r\n\r\ncontract MinesweeperCore is MinesweeperMinting {\r\n\r\n    function openTile(int16 _x, int16 _y, uint256 _tokenId) public {\r\n        require(_owns(msg.sender, _tokenId));\r\n        require(!_locked(_tokenId));\r\n\r\n        int16 _size = playfields[_tokenId].size;\r\n\r\n        require(playfields[_tokenId].fieldToTileStatus[(_y * _size) + _x] == tileStatus.DEFAULT);\r\n\r\n        playfields[_tokenId].fieldToTileStatus[(_y * _size) + _x] = tileStatus.OPENED;\r\n\r\n        playfields[_tokenId].tilesOpened++;\r\n\r\n        uint8 bombCount = 0;\r\n\r\n        for (int16 y = -1; y < 2; y++) {\r\n            for (int16 x = -1; x < 2; x++) {\r\n                if (_y + y >= 0 && _x + x >= 0) {\r\n                    if (isBomb(_x + x, _y + y, _tokenId)) {\r\n                        bombCount++;\r\n                    }\r\n                }\r\n            }\r\n        }\r\n\r\n        playfields[_tokenId].fieldToBombsNearby[(_y * _size) + _x] = bombCount;\r\n\r\n        TileOpened(_x, _y, bombCount, _tokenId);\r\n\r\n        if (isBomb(_x, _y, _tokenId)) {\r\n            playfields[_tokenId].fieldToTileStatus[(_y * _size) + _x] = tileStatus.OPENED_BOMB;\r\n            GameLost(_tokenId);\r\n            lockGame(_tokenId);\r\n        } else {\r\n            if (playfields[_tokenId].tilesOpened == (_size*_size) - playfields[_tokenId].bombCount) {\r\n                GameWon(_size*_size - playfields[_tokenId].bombCount);\r\n                lockGame(_tokenId);\r\n            }\r\n        }\r\n    }\r\n\r\n    function lockGame(uint256 _tokenId) internal {\r\n        playfields[_tokenId].locked = true;\r\n    }\r\n\r\n    function flagTile(int16 _x, int16 _y, uint256 _tokenId) public {\r\n        require(_owns(msg.sender, _tokenId));\r\n        require(!_locked(_tokenId));\r\n        \r\n        int16 _size = playfields[_tokenId].size;\r\n\r\n        require(playfields[_tokenId].fieldToTileStatus[(_y * _size) + _x] == tileStatus.DEFAULT);\r\n\r\n        playfields[_tokenId].fieldToTileStatus[(_y * _size) + _x] = tileStatus.FLAGGED;\r\n\r\n        TileFlagged(_x, _y, _tokenId);\r\n    }\r\n\r\n    function unflagTile(int16 _x, int16 _y, uint256 _tokenId) public {\r\n        require(_owns(msg.sender, _tokenId));\r\n        require(!_locked(_tokenId));\r\n        \r\n        int16 _size = playfields[_tokenId].size;\r\n\r\n        require(playfields[_tokenId].fieldToTileStatus[(_y * _size) + _x] == tileStatus.FLAGGED);\r\n\r\n        playfields[_tokenId].fieldToTileStatus[(_y * _size) + _x] = tileStatus.DEFAULT;\r\n\r\n        TileUnflagged(_x, _y, _tokenId);\r\n    }\r\n\r\n    function isBomb(int16 _x, int16 _y, uint256 _tokenId) public view returns (bool) {\r\n        int16 _size = playfields[_tokenId].size;\r\n        return playfields[_tokenId].fieldToBomb[(_y * _size) + _x];\r\n    }\r\n\r\n    function getGame(uint256 _tokenId) external view returns(int16 _size, int16 _bombCount, bytes32 _gameHash, int16 _tilesOpened, bool _locked) {\r\n        _size = playfields[_tokenId].size;\r\n        _bombCount = playfields[_tokenId].bombCount;\r\n        _gameHash = playfields[_tokenId].gameHash;\r\n        _tilesOpened = playfields[_tokenId].tilesOpened;\r\n        _locked = playfields[_tokenId].locked;\r\n    }\r\n\r\n    function getTile(int16 _x, int16 _y, uint256 _tokenId) external view returns(tileStatus) {\r\n        int16 _size = playfields[_tokenId].size;\r\n        return playfields[_tokenId].fieldToTileStatus[(_y * _size) + _x];\r\n    }\r\n}",
  "sourcePath": "C:\\Users\\Fabian\\Desktop\\Minesweeper\\contracts\\MinesweeperCore.sol",
  "compiler": {
    "name": "solc",
    "version": "0.4.19+commit.c4cbbb05.Emscripten.clang"
  },
  "schemaVersion": "1.0.1",
  "updatedAt": "2018-04-24T14:18:19.947Z"
}