{
  "contractName": "MinesweeperModel",
  "abi": [
    {
      "constant": true,
      "inputs": [
        {
          "name": "",
          "type": "uint256"
        }
      ],
      "name": "tokenIdToOwner",
      "outputs": [
        {
          "name": "",
          "type": "address"
        }
      ],
      "payable": false,
      "stateMutability": "view",
      "type": "function"
    },
    {
      "anonymous": false,
      "inputs": [
        {
          "indexed": false,
          "name": "x",
          "type": "int16"
        },
        {
          "indexed": false,
          "name": "y",
          "type": "int16"
        },
        {
          "indexed": false,
          "name": "tokenId",
          "type": "uint256"
        }
      ],
      "name": "TileFlagged",
      "type": "event"
    },
    {
      "anonymous": false,
      "inputs": [
        {
          "indexed": false,
          "name": "x",
          "type": "int16"
        },
        {
          "indexed": false,
          "name": "y",
          "type": "int16"
        },
        {
          "indexed": false,
          "name": "tokenId",
          "type": "uint256"
        }
      ],
      "name": "TileUnflagged",
      "type": "event"
    },
    {
      "anonymous": false,
      "inputs": [
        {
          "indexed": false,
          "name": "x",
          "type": "int16"
        },
        {
          "indexed": false,
          "name": "y",
          "type": "int16"
        },
        {
          "indexed": false,
          "name": "bombs",
          "type": "uint8"
        },
        {
          "indexed": false,
          "name": "tokenId",
          "type": "uint256"
        }
      ],
      "name": "TileOpened",
      "type": "event"
    },
    {
      "anonymous": false,
      "inputs": [
        {
          "indexed": false,
          "name": "_size",
          "type": "int16"
        },
        {
          "indexed": false,
          "name": "_bombCount",
          "type": "int16"
        },
        {
          "indexed": false,
          "name": "owner",
          "type": "address"
        },
        {
          "indexed": false,
          "name": "tokenId",
          "type": "uint256"
        }
      ],
      "name": "PlayfieldCreated",
      "type": "event"
    },
    {
      "anonymous": false,
      "inputs": [
        {
          "indexed": false,
          "name": "tokenId",
          "type": "uint256"
        }
      ],
      "name": "GameLost",
      "type": "event"
    },
    {
      "anonymous": false,
      "inputs": [
        {
          "indexed": false,
          "name": "tokenId",
          "type": "int16"
        }
      ],
      "name": "GameWon",
      "type": "event"
    },
    {
      "anonymous": false,
      "inputs": [
        {
          "indexed": false,
          "name": "x",
          "type": "int16"
        },
        {
          "indexed": false,
          "name": "y",
          "type": "int16"
        },
        {
          "indexed": false,
          "name": "bomb",
          "type": "bool"
        }
      ],
      "name": "TestEvent",
      "type": "event"
    },
    {
      "anonymous": false,
      "inputs": [
        {
          "indexed": false,
          "name": "random",
          "type": "int16"
        }
      ],
      "name": "BombPlaced",
      "type": "event"
    }
  ],
  "bytecode": "0x6060604052341561000f57600080fd5b6101038061001e6000396000f300606060405260043610603f576000357c0100000000000000000000000000000000000000000000000000000000900463ffffffff1680636e9e48ef146044575b600080fd5b3415604e57600080fd5b6062600480803590602001909190505060a4565b604051808273ffffffffffffffffffffffffffffffffffffffff1673ffffffffffffffffffffffffffffffffffffffff16815260200191505060405180910390f35b60006020528060005260406000206000915054906101000a900473ffffffffffffffffffffffffffffffffffffffff16815600a165627a7a72305820ac5f04f276f8c448f448f7eec27d784c0eb85601b5d3552daf4cc727884658060029",
  "source": "pragma solidity ^0.4.17;\r\n\r\n/// @title Model of the Minesweeper token\r\n/// @author Fabian Iwanecki\r\ncontract MinesweeperModel {\r\n    event TileFlagged(int16 x, int16 y, uint256 tokenId);\r\n    event TileUnflagged(int16 x, int16 y, uint256 tokenId);\r\n    event TileOpened(int16 x, int16 y, uint8 bombs, uint256 tokenId);\r\n    event PlayfieldCreated(int16 _size, int16 _bombCount, address owner, uint256 tokenId);\r\n    event GameLost(uint256 tokenId);\r\n    event GameWon(int16 tokenId);\r\n    event TestEvent(int16 x, int16 y, bool bomb);\r\n    event BombPlaced(int16 random);\r\n\r\n    enum tileStatus {DEFAULT, FLAGGED, OPENED, OPENED_BOMB}\r\n\r\n    struct Playfield {\r\n        int16 size;\r\n        int16 bombCount;\r\n        bytes32 gameHash;\r\n        int16 tilesOpened;\r\n        bool locked;\r\n        mapping (int16 => tileStatus) fieldToTileStatus;\r\n        mapping (int16 => bool) fieldToBomb;\r\n        mapping (int16 => uint8) fieldToBombsNearby;\r\n    }\r\n    \r\n    mapping (uint256 => address) public tokenIdToOwner;\r\n    uint256 nonce;\r\n    Playfield[] playfields;\r\n\r\n    function _createPlayfield(\r\n        int16 _size,\r\n        int16 _bombCount\r\n    )\r\n    internal\r\n    returns (uint256) {\r\n        Playfield memory _playfield = Playfield({\r\n            size: _size,\r\n            bombCount: _bombCount,\r\n            gameHash: generateFieldHash(_size, _bombCount),\r\n            tilesOpened: 0,\r\n            locked: false\r\n        });\r\n\r\n        uint256 newTokenId = playfields.push(_playfield) - 1;\r\n\r\n        tokenIdToOwner[newTokenId] = msg.sender;\r\n        nonce++;\r\n\r\n        return newTokenId;\r\n    }\r\n\r\n    function generateFieldHash(int16 _size, int16 _bombCount)\r\n    internal\r\n    view\r\n    returns (bytes32) {\r\n        return keccak256(_size, _bombCount, nonce);\r\n    }\r\n}",
  "sourcePath": "C:\\Users\\Fabian\\Desktop\\Minesweeper\\contracts\\MinesweeperModel.sol",
  "compiler": {
    "name": "solc",
    "version": "0.4.19+commit.c4cbbb05.Emscripten.clang"
  },
  "schemaVersion": "1.0.1",
  "updatedAt": "2018-04-24T14:16:45.995Z"
}