{
  "contractName": "MinesweeperMinting",
  "abi": [
    {
      "constant": true,
      "inputs": [],
      "name": "totalSupply",
      "outputs": [
        {
          "name": "",
          "type": "uint256"
        }
      ],
      "payable": false,
      "stateMutability": "view",
      "type": "function"
    },
    {
      "constant": true,
      "inputs": [],
      "name": "MIN_SIZE",
      "outputs": [
        {
          "name": "",
          "type": "uint256"
        }
      ],
      "payable": false,
      "stateMutability": "view",
      "type": "function"
    },
    {
      "constant": true,
      "inputs": [
        {
          "name": "_tokenId",
          "type": "uint256"
        }
      ],
      "name": "ownerOf",
      "outputs": [
        {
          "name": "owner",
          "type": "address"
        }
      ],
      "payable": false,
      "stateMutability": "view",
      "type": "function"
    },
    {
      "constant": true,
      "inputs": [
        {
          "name": "",
          "type": "uint256"
        }
      ],
      "name": "tokenIdToOwner",
      "outputs": [
        {
          "name": "",
          "type": "address"
        }
      ],
      "payable": false,
      "stateMutability": "view",
      "type": "function"
    },
    {
      "constant": true,
      "inputs": [],
      "name": "MAX_SIZE",
      "outputs": [
        {
          "name": "",
          "type": "uint256"
        }
      ],
      "payable": false,
      "stateMutability": "view",
      "type": "function"
    },
    {
      "constant": true,
      "inputs": [],
      "name": "NAME",
      "outputs": [
        {
          "name": "",
          "type": "string"
        }
      ],
      "payable": false,
      "stateMutability": "view",
      "type": "function"
    },
    {
      "constant": true,
      "inputs": [],
      "name": "SYMBOL",
      "outputs": [
        {
          "name": "",
          "type": "string"
        }
      ],
      "payable": false,
      "stateMutability": "view",
      "type": "function"
    },
    {
      "anonymous": false,
      "inputs": [
        {
          "indexed": false,
          "name": "x",
          "type": "uint256"
        },
        {
          "indexed": false,
          "name": "y",
          "type": "uint256"
        },
        {
          "indexed": false,
          "name": "tokenId",
          "type": "uint256"
        }
      ],
      "name": "TileFlagged",
      "type": "event"
    },
    {
      "anonymous": false,
      "inputs": [
        {
          "indexed": false,
          "name": "x",
          "type": "uint256"
        },
        {
          "indexed": false,
          "name": "y",
          "type": "uint256"
        },
        {
          "indexed": false,
          "name": "tokenId",
          "type": "uint256"
        }
      ],
      "name": "TileUnflagged",
      "type": "event"
    },
    {
      "anonymous": false,
      "inputs": [
        {
          "indexed": false,
          "name": "x",
          "type": "uint256"
        },
        {
          "indexed": false,
          "name": "y",
          "type": "uint256"
        },
        {
          "indexed": false,
          "name": "tokenId",
          "type": "uint256"
        }
      ],
      "name": "TileOpened",
      "type": "event"
    },
    {
      "anonymous": false,
      "inputs": [
        {
          "indexed": false,
          "name": "_size",
          "type": "uint256"
        },
        {
          "indexed": false,
          "name": "_bombCount",
          "type": "uint256"
        },
        {
          "indexed": false,
          "name": "owner",
          "type": "address"
        },
        {
          "indexed": false,
          "name": "tokenId",
          "type": "uint256"
        }
      ],
      "name": "PlayfieldCreated",
      "type": "event"
    },
    {
      "anonymous": false,
      "inputs": [
        {
          "indexed": false,
          "name": "tokenId",
          "type": "uint256"
        }
      ],
      "name": "GameLost",
      "type": "event"
    },
    {
      "constant": false,
      "inputs": [
        {
          "name": "_size",
          "type": "uint16"
        },
        {
          "name": "_bombCount",
          "type": "uint16"
        }
      ],
      "name": "createMinesweeperGame",
      "outputs": [
        {
          "name": "",
          "type": "uint256"
        }
      ],
      "payable": false,
      "stateMutability": "nonpayable",
      "type": "function"
    }
  ],
  "bytecode": "0x6060604052341561000f57600080fd5b6107dd8061001e6000396000f30060606040526004361061008e576000357c0100000000000000000000000000000000000000000000000000000000900463ffffffff16806318160ddd146100935780633fb09b3f146100bc57806345dcd02c146101045780636352211e1461012d5780636e9e48ef146101905780638d67799e146101f3578063a3f4df7e1461021c578063f76f8d78146102aa575b600080fd5b341561009e57600080fd5b6100a6610338565b6040518082815260200191505060405180910390f35b34156100c757600080fd5b6100ee600480803561ffff1690602001909190803561ffff16906020019091905050610345565b6040518082815260200191505060405180910390f35b341561010f57600080fd5b610117610422565b6040518082815260200191505060405180910390f35b341561013857600080fd5b61014e6004808035906020019091905050610427565b604051808273ffffffffffffffffffffffffffffffffffffffff1673ffffffffffffffffffffffffffffffffffffffff16815260200191505060405180910390f35b341561019b57600080fd5b6101b1600480803590602001909190505061049f565b604051808273ffffffffffffffffffffffffffffffffffffffff1673ffffffffffffffffffffffffffffffffffffffff16815260200191505060405180910390f35b34156101fe57600080fd5b6102066104d2565b6040518082815260200191505060405180910390f35b341561022757600080fd5b61022f6104d7565b6040518080602001828103825283818151815260200191508051906020019080838360005b8381101561026f578082015181840152602081019050610254565b50505050905090810190601f16801561029c5780820380516001836020036101000a031916815260200191505b509250505060405180910390f35b34156102b557600080fd5b6102bd610510565b6040518080602001828103825283818151815260200191508051906020019080838360005b838110156102fd5780820151818401526020810190506102e2565b50505050905090810190601f16801561032a5780820380516001836020036101000a031916815260200191505b509250505060405180910390f35b6000600280549050905090565b60008060648461ffff1611158015610362575060048461ffff1610155b151561036d57600080fd5b60018485020361ffff168361ffff161115151561038957600080fd5b6103938484610549565b90507ff74ba1e1179f0fcebe2fb2d20d9e7b55c5e691d33f552c56658a4977b6dd52fc84843384604051808561ffff1681526020018461ffff1681526020018373ffffffffffffffffffffffffffffffffffffffff1673ffffffffffffffffffffffffffffffffffffffff16815260200182815260200194505050505060405180910390a18091505092915050565b600481565b600080600083815260200190815260200160002060009054906101000a900473ffffffffffffffffffffffffffffffffffffffff169050600073ffffffffffffffffffffffffffffffffffffffff168173ffffffffffffffffffffffffffffffffffffffff161415151561049a57600080fd5b919050565b60006020528060005260406000206000915054906101000a900473ffffffffffffffffffffffffffffffffffffffff1681565b606481565b6040805190810160405280601481526020017f4d696e657377656570657220457468657265756d00000000000000000000000081525081565b6040805190810160405280600381526020017f4d5345000000000000000000000000000000000000000000000000000000000081525081565b6000610553610701565b60006060604051908101604052808661ffff1681526020018561ffff16815260200161057f878761067d565b60001916815250915060016002805480600101828161059e919061072e565b9160005260206000209060040201600085909190915060008201518160000160006101000a81548161ffff021916908361ffff16021790555060208201518160000160026101000a81548161ffff021916908361ffff1602179055506040820151816001019060001916905550500390503360008083815260200190815260200160002060006101000a81548173ffffffffffffffffffffffffffffffffffffffff021916908373ffffffffffffffffffffffffffffffffffffffff160217905550600160008154809291906001019190505550809250505092915050565b60008282600154604051808461ffff1661ffff167e010000000000000000000000000000000000000000000000000000000000000281526002018361ffff1661ffff167e0100000000000000000000000000000000000000000000000000000000000002815260020182815260200193505050506040518091039020905092915050565b606060405190810160405280600061ffff168152602001600061ffff168152602001600080191681525090565b81548183558181151161075b5760040281600402836000526020600020918201910161075a9190610760565b5b505050565b6107ae91905b808211156107aa57600080820160006101000a81549061ffff02191690556000820160026101000a81549061ffff0219169055600182016000905550600401610766565b5090565b905600a165627a7a723058203ffea2b8afc4be3cc2d0daec5281d66cec0a898cbacbeb04e693f381a252ffc70029",
  "source": "pragma solidity ^0.4.17;\r\n\r\nimport \"./MinesweeperOwnership.sol\";\r\n\r\ncontract MinesweeperMinting is MinesweeperOwnership{\r\n    uint256 public constant MAX_SIZE = 100;\r\n    uint256 public constant MIN_SIZE = 4;\r\n\r\n    function createMinesweeperGame(uint16 _size, uint16 _bombCount) public returns (uint256) {\r\n        require(_size <= MAX_SIZE && _size >= MIN_SIZE);\r\n        require(_bombCount <= (_size*_size) - 1);\r\n\r\n        uint256 _tokenId = _createPlayfield(_size, _bombCount);\r\n\r\n        PlayfieldCreated(_size, _bombCount, msg.sender, _tokenId);\r\n        return _tokenId;\r\n    }\r\n}",
  "sourcePath": "C:\\Users\\Fabian\\Desktop\\Minesweeper\\contracts\\MinesweeperMinting.sol",
  "compiler": {
    "name": "solc",
    "version": "0.4.19+commit.c4cbbb05.Emscripten.clang"
  },
  "schemaVersion": "1.0.1",
  "updatedAt": "2018-04-23T21:25:12.238Z"
}