{
  "contractName": "MinesweeperCore",
  "abi": [
    {
      "constant": true,
      "inputs": [],
      "name": "totalSupply",
      "outputs": [
        {
          "name": "",
          "type": "uint256"
        }
      ],
      "payable": false,
      "stateMutability": "view",
      "type": "function"
    },
    {
      "constant": false,
      "inputs": [
        {
          "name": "_size",
          "type": "uint16"
        },
        {
          "name": "_bombCount",
          "type": "uint16"
        }
      ],
      "name": "createMinesweeperGame",
      "outputs": [
        {
          "name": "",
          "type": "uint256"
        }
      ],
      "payable": false,
      "stateMutability": "nonpayable",
      "type": "function"
    },
    {
      "constant": true,
      "inputs": [],
      "name": "MIN_SIZE",
      "outputs": [
        {
          "name": "",
          "type": "uint256"
        }
      ],
      "payable": false,
      "stateMutability": "view",
      "type": "function"
    },
    {
      "constant": true,
      "inputs": [
        {
          "name": "_tokenId",
          "type": "uint256"
        }
      ],
      "name": "ownerOf",
      "outputs": [
        {
          "name": "owner",
          "type": "address"
        }
      ],
      "payable": false,
      "stateMutability": "view",
      "type": "function"
    },
    {
      "constant": true,
      "inputs": [
        {
          "name": "",
          "type": "uint256"
        }
      ],
      "name": "tokenIdToOwner",
      "outputs": [
        {
          "name": "",
          "type": "address"
        }
      ],
      "payable": false,
      "stateMutability": "view",
      "type": "function"
    },
    {
      "constant": true,
      "inputs": [],
      "name": "MAX_SIZE",
      "outputs": [
        {
          "name": "",
          "type": "uint256"
        }
      ],
      "payable": false,
      "stateMutability": "view",
      "type": "function"
    },
    {
      "constant": true,
      "inputs": [],
      "name": "NAME",
      "outputs": [
        {
          "name": "",
          "type": "string"
        }
      ],
      "payable": false,
      "stateMutability": "view",
      "type": "function"
    },
    {
      "constant": true,
      "inputs": [],
      "name": "SYMBOL",
      "outputs": [
        {
          "name": "",
          "type": "string"
        }
      ],
      "payable": false,
      "stateMutability": "view",
      "type": "function"
    },
    {
      "anonymous": false,
      "inputs": [
        {
          "indexed": false,
          "name": "x",
          "type": "uint256"
        },
        {
          "indexed": false,
          "name": "y",
          "type": "uint256"
        },
        {
          "indexed": false,
          "name": "tokenId",
          "type": "uint256"
        }
      ],
      "name": "TileFlagged",
      "type": "event"
    },
    {
      "anonymous": false,
      "inputs": [
        {
          "indexed": false,
          "name": "x",
          "type": "uint256"
        },
        {
          "indexed": false,
          "name": "y",
          "type": "uint256"
        },
        {
          "indexed": false,
          "name": "tokenId",
          "type": "uint256"
        }
      ],
      "name": "TileUnflagged",
      "type": "event"
    },
    {
      "anonymous": false,
      "inputs": [
        {
          "indexed": false,
          "name": "x",
          "type": "uint256"
        },
        {
          "indexed": false,
          "name": "y",
          "type": "uint256"
        },
        {
          "indexed": false,
          "name": "tokenId",
          "type": "uint256"
        }
      ],
      "name": "TileOpened",
      "type": "event"
    },
    {
      "anonymous": false,
      "inputs": [
        {
          "indexed": false,
          "name": "_size",
          "type": "uint256"
        },
        {
          "indexed": false,
          "name": "_bombCount",
          "type": "uint256"
        },
        {
          "indexed": false,
          "name": "owner",
          "type": "address"
        },
        {
          "indexed": false,
          "name": "tokenId",
          "type": "uint256"
        }
      ],
      "name": "PlayfieldCreated",
      "type": "event"
    },
    {
      "anonymous": false,
      "inputs": [
        {
          "indexed": false,
          "name": "tokenId",
          "type": "uint256"
        }
      ],
      "name": "GameLost",
      "type": "event"
    },
    {
      "constant": false,
      "inputs": [
        {
          "name": "_x",
          "type": "uint16"
        },
        {
          "name": "_y",
          "type": "uint16"
        },
        {
          "name": "_tokenId",
          "type": "uint256"
        }
      ],
      "name": "openTile",
      "outputs": [],
      "payable": false,
      "stateMutability": "nonpayable",
      "type": "function"
    },
    {
      "constant": false,
      "inputs": [
        {
          "name": "_x",
          "type": "uint16"
        },
        {
          "name": "_y",
          "type": "uint16"
        },
        {
          "name": "_tokenId",
          "type": "uint256"
        }
      ],
      "name": "flagTile",
      "outputs": [],
      "payable": false,
      "stateMutability": "nonpayable",
      "type": "function"
    },
    {
      "constant": false,
      "inputs": [
        {
          "name": "_x",
          "type": "uint16"
        },
        {
          "name": "_y",
          "type": "uint16"
        },
        {
          "name": "_tokenId",
          "type": "uint256"
        }
      ],
      "name": "unflagTile",
      "outputs": [],
      "payable": false,
      "stateMutability": "nonpayable",
      "type": "function"
    },
    {
      "constant": true,
      "inputs": [
        {
          "name": "_tokenId",
          "type": "uint256"
        }
      ],
      "name": "getGame",
      "outputs": [
        {
          "name": "_size",
          "type": "uint256"
        },
        {
          "name": "_bombCount",
          "type": "uint256"
        },
        {
          "name": "_gameHash",
          "type": "bytes32"
        }
      ],
      "payable": false,
      "stateMutability": "view",
      "type": "function"
    },
    {
      "constant": true,
      "inputs": [
        {
          "name": "_x",
          "type": "uint16"
        },
        {
          "name": "_y",
          "type": "uint16"
        },
        {
          "name": "_tokenId",
          "type": "uint256"
        }
      ],
      "name": "getTile",
      "outputs": [
        {
          "name": "",
          "type": "uint8"
        }
      ],
      "payable": false,
      "stateMutability": "view",
      "type": "function"
    }
  ],
  "bytecode": "0x6060604052341561000f57600080fd5b6110748061001e6000396000f3006060604052600436106100c5576000357c0100000000000000000000000000000000000000000000000000000000900463ffffffff16806318160ddd146100ca5780631f4d1dc2146100f35780633fb09b3f1461015257806345dcd02c1461019a5780636352211e146101c35780636e9e48ef14610226578063828bb183146102895780638d67799e146102c6578063a2f77bcc146102ef578063a3f4df7e1461033c578063db61b35c146103ca578063f76f8d7814610407578063ff3497a014610495575b600080fd5b34156100d557600080fd5b6100dd6104d2565b6040518082815260200191505060405180910390f35b34156100fe57600080fd5b61012e600480803561ffff1690602001909190803561ffff169060200190919080359060200190919050506104df565b6040518082600381111561013e57fe5b60ff16815260200191505060405180910390f35b341561015d57600080fd5b610184600480803561ffff1690602001909190803561ffff16906020019091905050610568565b6040518082815260200191505060405180910390f35b34156101a557600080fd5b6101ad610645565b6040518082815260200191505060405180910390f35b34156101ce57600080fd5b6101e4600480803590602001909190505061064a565b604051808273ffffffffffffffffffffffffffffffffffffffff1673ffffffffffffffffffffffffffffffffffffffff16815260200191505060405180910390f35b341561023157600080fd5b61024760048080359060200190919050506106c2565b604051808273ffffffffffffffffffffffffffffffffffffffff1673ffffffffffffffffffffffffffffffffffffffff16815260200191505060405180910390f35b341561029457600080fd5b6102c4600480803561ffff1690602001909190803561ffff169060200190919080359060200190919050506106f5565b005b34156102d157600080fd5b6102d9610860565b6040518082815260200191505060405180910390f35b34156102fa57600080fd5b6103106004808035906020019091905050610865565b604051808481526020018381526020018260001916600019168152602001935050505060405180910390f35b341561034757600080fd5b61034f6108fe565b6040518080602001828103825283818151815260200191508051906020019080838360005b8381101561038f578082015181840152602081019050610374565b50505050905090810190601f1680156103bc5780820380516001836020036101000a031916815260200191505b509250505060405180910390f35b34156103d557600080fd5b610405600480803561ffff1690602001909190803561ffff16906020019091908035906020019091905050610937565b005b341561041257600080fd5b61041a610aa2565b6040518080602001828103825283818151815260200191508051906020019080838360005b8381101561045a57808201518184015260208101905061043f565b50505050905090810190601f1680156104875780820380516001836020036101000a031916815260200191505b509250505060405180910390f35b34156104a057600080fd5b6104d0600480803561ffff1690602001909190803561ffff16906020019091908035906020019091905050610adb565b005b6000600280549050905090565b6000806002838154811015156104f157fe5b906000526020600020906004020160000160009054906101000a900461ffff16905060028381548110151561052257fe5b90600052602060002090600402016002016000868387020161ffff1661ffff16815260200190815260200160002060009054906101000a900460ff169150509392505050565b60008060648461ffff1611158015610585575060048461ffff1610155b151561059057600080fd5b60018485020361ffff168361ffff16111515156105ac57600080fd5b6105b68484610cec565b90507ff74ba1e1179f0fcebe2fb2d20d9e7b55c5e691d33f552c56658a4977b6dd52fc84843384604051808561ffff1681526020018461ffff1681526020018373ffffffffffffffffffffffffffffffffffffffff1673ffffffffffffffffffffffffffffffffffffffff16815260200182815260200194505050505060405180910390a18091505092915050565b600481565b600080600083815260200190815260200160002060009054906101000a900473ffffffffffffffffffffffffffffffffffffffff169050600073ffffffffffffffffffffffffffffffffffffffff168173ffffffffffffffffffffffffffffffffffffffff16141515156106bd57600080fd5b919050565b60006020528060005260406000206000915054906101000a900473ffffffffffffffffffffffffffffffffffffffff1681565b60006107013383610e20565b151561070c57600080fd5b60028281548110151561071b57fe5b906000526020600020906004020160000160009054906101000a900461ffff1690506001600381111561074a57fe5b60028381548110151561075957fe5b90600052602060002090600402016002016000868487020161ffff1661ffff16815260200190815260200160002060009054906101000a900460ff1660038111156107a057fe5b1415156107ac57600080fd5b60006002838154811015156107bd57fe5b90600052602060002090600402016002016000868487020161ffff1661ffff16815260200190815260200160002060006101000a81548160ff0219169083600381111561080657fe5b02179055507f11551911714a2a1a6da7f08e65ee0787b34cc70795e628e938c839c3d669e767848484604051808461ffff1681526020018361ffff168152602001828152602001935050505060405180910390a150505050565b606481565b600080600060028481548110151561087957fe5b906000526020600020906004020160000160009054906101000a900461ffff1661ffff1692506002848154811015156108ae57fe5b906000526020600020906004020160000160029054906101000a900461ffff1661ffff1691506002848154811015156108e357fe5b90600052602060002090600402016001015490509193909250565b6040805190810160405280601481526020017f4d696e657377656570657220457468657265756d00000000000000000000000081525081565b60006109433383610e20565b151561094e57600080fd5b60028281548110151561095d57fe5b906000526020600020906004020160000160009054906101000a900461ffff1690506000600381111561098c57fe5b60028381548110151561099b57fe5b90600052602060002090600402016002016000868487020161ffff1661ffff16815260200190815260200160002060009054906101000a900460ff1660038111156109e257fe5b1415156109ee57600080fd5b60016002838154811015156109ff57fe5b90600052602060002090600402016002016000868487020161ffff1661ffff16815260200190815260200160002060006101000a81548160ff02191690836003811115610a4857fe5b02179055507ffc9405596d55f21f9ec6f528d1406b3f5b24d3378ade51946ce5ea0e49b0f999848484604051808461ffff1681526020018361ffff168152602001828152602001935050505060405180910390a150505050565b6040805190810160405280600381526020017f4d5345000000000000000000000000000000000000000000000000000000000081525081565b6000610ae73383610e20565b1515610af257600080fd5b600282815481101515610b0157fe5b906000526020600020906004020160000160009054906101000a900461ffff16905060006003811115610b3057fe5b600283815481101515610b3f57fe5b90600052602060002090600402016002016000868487020161ffff1661ffff16815260200190815260200160002060009054906101000a900460ff166003811115610b8657fe5b141515610b9257600080fd5b60028083815481101515610ba257fe5b90600052602060002090600402016002016000868487020161ffff1661ffff16815260200190815260200160002060006101000a81548160ff02191690836003811115610beb57fe5b02179055507fc2f48402b21443b058322246b91e1ef7527545d383ee476c6f442e2ced727174848484604051808461ffff1681526020018361ffff168152602001828152602001935050505060405180910390a1610c4a848484610e8b565b15610ce6576003600283815481101515610c6057fe5b90600052602060002090600402016002016000868487020161ffff1661ffff16815260200190815260200160002060006101000a81548160ff02191690836003811115610ca957fe5b02179055507f944b38ea929fa05f5813527d5626015c8e0819220ae1a8fa2b76ebd7f7f9cd1a826040518082815260200191505060405180910390a15b50505050565b6000610cf6610f98565b60006060604051908101604052808661ffff1681526020018561ffff168152602001610d228787610f14565b600019168152509150600160028054806001018281610d419190610fc5565b9160005260206000209060040201600085909190915060008201518160000160006101000a81548161ffff021916908361ffff16021790555060208201518160000160026101000a81548161ffff021916908361ffff1602179055506040820151816001019060001916905550500390503360008083815260200190815260200160002060006101000a81548173ffffffffffffffffffffffffffffffffffffffff021916908373ffffffffffffffffffffffffffffffffffffffff160217905550600160008154809291906001019190505550809250505092915050565b60008273ffffffffffffffffffffffffffffffffffffffff1660008084815260200190815260200160002060009054906101000a900473ffffffffffffffffffffffffffffffffffffffff1673ffffffffffffffffffffffffffffffffffffffff1614905092915050565b600080600283815481101515610e9d57fe5b906000526020600020906004020160000160009054906101000a900461ffff169050600283815481101515610ece57fe5b90600052602060002090600402016003016000868387020161ffff1661ffff16815260200190815260200160002060009054906101000a900460ff169150509392505050565b60008282600154604051808461ffff1661ffff167e010000000000000000000000000000000000000000000000000000000000000281526002018361ffff1661ffff167e0100000000000000000000000000000000000000000000000000000000000002815260020182815260200193505050506040518091039020905092915050565b606060405190810160405280600061ffff168152602001600061ffff168152602001600080191681525090565b815481835581811511610ff257600402816004028360005260206000209182019101610ff19190610ff7565b5b505050565b61104591905b8082111561104157600080820160006101000a81549061ffff02191690556000820160026101000a81549061ffff0219169055600182016000905550600401610ffd565b5090565b905600a165627a7a723058200edd2de4a2101e34eb8b6718e522e87ec99bca8c8b4dc2aa3cd793b1637541af0029",
  "source": "pragma solidity ^0.4.17;\r\n\r\nimport \"./MinesweeperMinting.sol\";\r\n\r\ncontract MinesweeperCore is MinesweeperMinting {\r\n\r\n    function openTile(uint16 _x, uint16 _y, uint256 _tokenId) public {\r\n        require(_owns(msg.sender, _tokenId));\r\n\r\n        uint16 _size = playfields[_tokenId].size;\r\n\r\n        require(playfields[_tokenId].fieldToTileStatus[(_y * _size) + _x] == tileStatus.DEFAULT);\r\n\r\n        playfields[_tokenId].fieldToTileStatus[(_y * _size) + _x] = tileStatus.OPENED;\r\n\r\n        TileOpened(_x, _y, _tokenId);\r\n\r\n        if (isBomb(_x, _y, _tokenId)) {\r\n            playfields[_tokenId].fieldToTileStatus[(_y * _size) + _x] = tileStatus.OPENED_BOMB;\r\n            GameLost(_tokenId);\r\n        }\r\n    }\r\n\r\n    function flagTile(uint16 _x, uint16 _y, uint256 _tokenId) public {\r\n        require(_owns(msg.sender, _tokenId));\r\n        \r\n        uint16 _size = playfields[_tokenId].size;\r\n\r\n        require(playfields[_tokenId].fieldToTileStatus[(_y * _size) + _x] == tileStatus.DEFAULT);\r\n\r\n        playfields[_tokenId].fieldToTileStatus[(_y * _size) + _x] = tileStatus.FLAGGED;\r\n\r\n        TileFlagged(_x, _y, _tokenId);\r\n    }\r\n\r\n    function unflagTile(uint16 _x, uint16 _y, uint256 _tokenId) public {\r\n        require(_owns(msg.sender, _tokenId));\r\n        \r\n        uint16 _size = playfields[_tokenId].size;\r\n\r\n        require(playfields[_tokenId].fieldToTileStatus[(_y * _size) + _x] == tileStatus.FLAGGED);\r\n\r\n        playfields[_tokenId].fieldToTileStatus[(_y * _size) + _x] = tileStatus.DEFAULT;\r\n\r\n        TileUnflagged(_x, _y, _tokenId);\r\n    }\r\n\r\n    function isBomb(uint16 _x, uint16 _y, uint256 _tokenId) internal view returns (bool) {\r\n        uint16 _size = playfields[_tokenId].size;\r\n        return playfields[_tokenId].fieldToBomb[(_y * _size) + _x];\r\n    }\r\n\r\n    function getGame(uint256 _tokenId) external view returns(uint256 _size, uint256 _bombCount, bytes32 _gameHash) {\r\n        _size = playfields[_tokenId].size;\r\n        _bombCount = playfields[_tokenId].bombCount;\r\n        _gameHash = playfields[_tokenId].gameHash;\r\n    }\r\n\r\n    function getTile(uint16 _x, uint16 _y, uint256 _tokenId) external view returns(tileStatus) {\r\n        uint16 _size = playfields[_tokenId].size;\r\n        return playfields[_tokenId].fieldToTileStatus[(_y * _size) + _x];\r\n    }\r\n}",
  "sourcePath": "C:\\Users\\Fabian\\Desktop\\Minesweeper\\contracts\\MinesweeperCore.sol",
  "compiler": {
    "name": "solc",
    "version": "0.4.19+commit.c4cbbb05.Emscripten.clang"
  },
  "schemaVersion": "1.0.1",
  "updatedAt": "2018-04-23T21:25:12.535Z"
}