{
  "contractName": "MinesweeperModel",
  "abi": [
    {
      "constant": true,
      "inputs": [
        {
          "name": "",
          "type": "uint256"
        }
      ],
      "name": "tokenIdToOwner",
      "outputs": [
        {
          "name": "",
          "type": "address"
        }
      ],
      "payable": false,
      "stateMutability": "view",
      "type": "function"
    },
    {
      "anonymous": false,
      "inputs": [
        {
          "indexed": false,
          "name": "x",
          "type": "uint256"
        },
        {
          "indexed": false,
          "name": "y",
          "type": "uint256"
        },
        {
          "indexed": false,
          "name": "tokenId",
          "type": "uint256"
        }
      ],
      "name": "TileFlagged",
      "type": "event"
    },
    {
      "anonymous": false,
      "inputs": [
        {
          "indexed": false,
          "name": "x",
          "type": "uint256"
        },
        {
          "indexed": false,
          "name": "y",
          "type": "uint256"
        },
        {
          "indexed": false,
          "name": "tokenId",
          "type": "uint256"
        }
      ],
      "name": "TileUnflagged",
      "type": "event"
    },
    {
      "anonymous": false,
      "inputs": [
        {
          "indexed": false,
          "name": "x",
          "type": "uint256"
        },
        {
          "indexed": false,
          "name": "y",
          "type": "uint256"
        },
        {
          "indexed": false,
          "name": "tokenId",
          "type": "uint256"
        }
      ],
      "name": "TileOpened",
      "type": "event"
    },
    {
      "anonymous": false,
      "inputs": [
        {
          "indexed": false,
          "name": "_size",
          "type": "uint256"
        },
        {
          "indexed": false,
          "name": "_bombCount",
          "type": "uint256"
        },
        {
          "indexed": false,
          "name": "owner",
          "type": "address"
        },
        {
          "indexed": false,
          "name": "tokenId",
          "type": "uint256"
        }
      ],
      "name": "PlayfieldCreated",
      "type": "event"
    },
    {
      "anonymous": false,
      "inputs": [
        {
          "indexed": false,
          "name": "tokenId",
          "type": "uint256"
        }
      ],
      "name": "GameLost",
      "type": "event"
    }
  ],
  "bytecode": "0x6060604052341561000f57600080fd5b6101038061001e6000396000f300606060405260043610603f576000357c0100000000000000000000000000000000000000000000000000000000900463ffffffff1680636e9e48ef146044575b600080fd5b3415604e57600080fd5b6062600480803590602001909190505060a4565b604051808273ffffffffffffffffffffffffffffffffffffffff1673ffffffffffffffffffffffffffffffffffffffff16815260200191505060405180910390f35b60006020528060005260406000206000915054906101000a900473ffffffffffffffffffffffffffffffffffffffff16815600a165627a7a72305820fa3ae67ffc8ebf8cdf444c2ea188b7bd7da07dc8b3da14ac7bc0160dfc93d8700029",
  "source": "pragma solidity ^0.4.17;\r\n\r\n/// @title Model of the Minesweeper token\r\n/// @author Fabian Iwanecki\r\ncontract MinesweeperModel {\r\n    event TileFlagged(uint256 x, uint256 y, uint256 tokenId);\r\n    event TileUnflagged(uint256 x, uint256 y, uint256 tokenId);\r\n    event TileOpened(uint256 x, uint256 y, uint256 tokenId);\r\n    event PlayfieldCreated(uint256 _size, uint256 _bombCount, address owner, uint256 tokenId);\r\n    event GameLost(uint256 tokenId);\r\n\r\n    enum tileStatus {DEFAULT, FLAGGED, OPENED, OPENED_BOMB}\r\n\r\n    struct Playfield {\r\n        uint16 size;\r\n        uint16 bombCount;\r\n        bytes32 gameHash;\r\n        mapping (uint16 => tileStatus) fieldToTileStatus;\r\n        mapping (uint16 => bool) fieldToBomb;\r\n    }\r\n    \r\n    mapping (uint256 => address) public tokenIdToOwner;\r\n    uint256 nonce;\r\n    Playfield[] playfields;\r\n\r\n    function _createPlayfield(\r\n        uint16 _size,\r\n        uint16 _bombCount\r\n    )\r\n    internal\r\n    returns (uint256) {\r\n        Playfield memory _playfield = Playfield({\r\n            size: _size,\r\n            bombCount: _bombCount,\r\n            gameHash: generateFieldHash(_size, _bombCount)\r\n        });\r\n\r\n        uint256 newTokenId = playfields.push(_playfield) - 1;\r\n\r\n        tokenIdToOwner[newTokenId] = msg.sender;\r\n        nonce++;\r\n\r\n        return newTokenId;\r\n    }\r\n\r\n    function generateFieldHash(uint16 _size, uint16 _bombCount)\r\n    internal\r\n    view\r\n    returns (bytes32) {\r\n        return keccak256(_size, _bombCount, nonce);\r\n    }\r\n}",
  "sourcePath": "C:\\Users\\Fabian\\Desktop\\Minesweeper\\contracts\\MinesweeperModel.sol",
  "compiler": {
    "name": "solc",
    "version": "0.4.19+commit.c4cbbb05.Emscripten.clang"
  },
  "schemaVersion": "1.0.1",
  "updatedAt": "2018-04-23T21:25:12.239Z"
}